:020000040800F2
:10000000400D0020C501000837240008ED2100083C
:1000100035240008A50800086D290008000000002C
:10002000000000000000000000000000BF250008E4
:100030000D09000800000000BD250008C1250008CA
:10004000DF010008DF010008DF010008DF01000810
:10005000DF010008DF010008DF010008DF01000800
:10006000DF010008DF010008DF010008DF010008F0
:10007000DF010008DF010008DF010008DF010008E0
:10008000DF010008DF010008DF010008DF010008D0
:10009000A9080008DF010008DF010008DF010008EF
:1000A000DF010008DF010008DF010008DF010008B0
:1000B000DF010008DF010008DF010008DF010008A0
:1000C000DF010008DF010008DF010008DF01000890
:1000D000DF010008DF01000855290008DF010008E2
:1000E000DF010008DF010008DF010008DF01000870
:1000F000DF010008DF010008DF010008DF01000860
:10010000DF010008DF010008DF010008DF0100084F
:10011000DF010008DF010008DF010008DF0100083F
:10012000DF010008DF010008DF010008DF0100082F
:10013000DF010008DF010008DF010008DF0100081F
:10014000B5080008DF010008DF010008DF01000832
:10015000DF010008DF010008DF0100086129000855
:10016000DF010008DF010008DF010008DF010008EF
:10017000DF010008DF010008DF01000800000000C7
:10018000DF010008DF010008DF0100086926000820
:10019000DF010008DF010008DF010008DF010008BF
:1001A0000000000000000000DF010008DFF810D0B0
:1001B00000F098F900480047792C0008AFF3008060
:1001C000400D00200648804706480047FEE7FEE74E
:1001D000FEE7FEE7FEE7FEE7FEE7FEE7FEE7FEE7F7
:1001E00059260008AD0100082DE9F05F0546002002
:1001F00092469B4688460646814640241BE0284698
:1002000041464746224600F01AF953465A46C01A5C
:10021000914110D311461846224600F001F92D1ADB
:1002200067EB01084F4622460120002100F0F8F854
:1002300017EB00094E41201EA4F10104DFDC484603
:1002400031462A464346BDE8F09FD2B201E000F8AD
:10025000012B491EFBD270470022F6E710B513466A
:100260000A4604461946FFF7F0FF204610BD00007D
:100270000FB400B58DB010A909900B9000914FF00C
:10028000FF300A9000200C90054806900548079022
:100290006A4609A80F9900F0F7F80DB05DF814FB55
:1002A000A5040008C30400082DE9FF5F1D464FF0B8
:1002B000FF3BD5E9014691465F464FF00008A9692A
:1002C0007F1C01988847296A824688470028F6D112
:1002D000BAF1FF3F0CD024F4C064002E19DD600693
:1002E00014D5BAF12B0F09D0BAF12D0F0ED103E0BE
:1002F000584604B0BDE8F09F44F48064A9697F1CAF
:1003000001988847761E8246002E02DDBAF1300F32
:1003100003D0B9F1000F26D032E0A969761E44F46B
:1003200000747F1C019888478246002E05DDBAF1D3
:10033000780F06D0BAF1580F03D0B9F1000F10D0E2
:100340001EE0B9F1000F02D0B9F1100F18D1A96960
:10035000761E24F400747F1C019888478246102082
:1003600002E0082000E00A20814609E008FB0908B5
:10037000A969761E44F400747F1C01988847824660
:10038000002E05DD4946504600F069F80028EDDAF8
:10039000E96901988847A00502D46FF00100A8E739
:1003A000E00725D1600613D5600502D5C8F100002D
:1003B00000E0404629680A1D2A600968220501D527
:1003C000087015E0220701D5088011E008600FE0F1
:1003D0002868011D29600068210502D580F8008089
:1003E00006E0210702D5A0F8008001E0C0F80080F7
:1003F00038467EE730B50B46014600202022012416
:1004000009E021FA02F59D4205D303FA02F5491BE2
:1004100004FA02F52844151EA2F10102F1DC30BDF8
:10042000202A04DB203A00FA02F1002070479140B4
:10043000C2F1200320FA03F3194390407047202AA9
:1004400004DB203A21FA02F00021704721FA02F37E
:10045000D040C2F1200291400843194670473A2823
:1004600000D2303820F02002412A01D3A2F1370017
:10047000884201D34FF0FF307047000002681144FA
:100480001378016018467047D160044951610449EE
:10049000116200211161114600F03CB87D04000892
:1004A00009050008426842B1016811F8013B23B117
:1004B000521EC0E90012184670470121C160881E13
:1004C000704742685AB1C368016843B983688B4278
:1004D00005D0491E521CC0E90012002070474FF0A1
:1004E000FF307047064C074D06E0E06840F001031E
:1004F00094E8070098471034AC42F6D3FFF75AFE51
:10050000582F0008782F0008C0B24FF4F05100F0C7
:1005100099B900002DE9F34F8BB04FF0000801F1BD
:100520000C000C464FF0010B46460DF1080A0190F5
:100530006269012101989047051E2DD0252D2CD0F0
:10054000216A8847C0B16269012101989047216AF8
:1005500088470028F7D1411E62690198904700E062
:10056000761CA1690B988847216A88470028F7D133
:10057000E1690B988847DBE7A1690B988847074634
:10058000A84201D1761CD3E7E1690B9888477F1C0C
:1005900002D1B8F1000F6FD047E1002762693D46F4
:1005A0003946019890472A2804D1626901210198AF
:1005B00090470125DFF888926269012101989047F0
:1005C000A0F130010A290AD24F45E5DC07EB87018B
:1005D00000EB4107303FDFD445F01005ECE7E906BA
:1005E00001D46FF000476C280AD04C2814D068283A
:1005F00015D06A280DD074281CD07A281AD01DE096
:1006000062690121019890476C2802D045F00405E9
:1006100014E045F002050DE045F020050AE06269AE
:10062000012101989047682802D045F0080505E0AF
:1006300045F400656269012101989047C4E90157BA
:1006400065283DD019DC58287AD00CDC452837D0F5
:1006500004DC252826D0412831D131E046282FD08E
:1006600047282CD12CE05B2877D0612828D063283C
:100670007CD0642823D15AE0D1E06F2848D008DC30
:1006800066281DD067281BD0692821D06E2816D176
:1006900027E0702845D0732868D0752847D078287F
:1006A0000DD14DE0A1690B988847054625283FF4F8
:1006B00069AFE1690B9888476D1C3FF46AAFB4E0FD
:1006C00023466A466FF001000B99AFF300809FE06C
:1006D00045F040006060A80723464FF0000236D482
:1006E0003EE0E8077FF447AF2068011D2160006805
:1006F000290501D506701BE7290701D5068017E7F4
:10070000A90703D5F117C0E9006111E706600FE7FB
:1007100045F040006060A80723464FF0080216D459
:100720001EE040F60E0125EA0100606016E045F08B
:1007300040006060A80723464FF00A0207D40FE08C
:1007400045F040006060A80708D5234610226FF0EE
:1007500001000B99AFF300805AE007E02346102216
:100760006FF001000B99FFF79FFD51E04FF000097A
:100770004F464B46632802D05B2807D041E02079E2
:10078000C00601D40120A06001273AE0626901217E
:10079000019890475E2805D14FF0010962694946EA
:1007A00001989047216939B900210A46534643F818
:1007B0002120491C0829FADBB0B3216969B9C117A6
:1007C00000EBD16253110AEB830122F01F02821A5F
:1007D00001200B68904003430B606269012101987E
:1007E00090475D28E8D1B9F1000F09D000205146AB
:1007F00051F82020D24341F82020401C0828F7DB84
:1008000002AB224600976FF001000B99AFF3008016
:1008100000280CDA401C08D1BBF1000F05D04FF0C6
:10082000FF300DB0BDE8F08FFFE74046F9E7E9077C
:1008300001D108F1010806444FF0000B78E60000F2
:10084000CCCCCC0C7F2801D9002208E0064A02EB70
:100850005002C007127800D1120902F00F020120E5
:100860009040084070470000182F000810B54FF462
:100870007A7422460749084801F0F2F922460549F0
:10088000064801F0EDF92246BDE810400149044850
:1008900001F0E6B9C4010020F80500203C06002064
:1008A00080060020FEE70000014800F086BA000044
:1008B00074010020014800F080BA00009C01002073
:1008C000F8B50F4C002500954FF40076A560266022
:1008D000E560082525610B4C050A25706070080A43
:1008E000A070E170100A20716271180AA071E371A2
:1008F0006B4622460249044800F0F6F8F8BD0000B5
:10090000240700202D000020740100207047000003
:100910002DE9FF470024804601940294039402F0DD
:100920007FFA814603A8009002AB01AA4BA14E4872
:10093000FFF79EFC032803D04B4B4946002017E0ED
:1009400049494AA002F014F80398A0EB001202985B
:10095000C0EB00110198C0EB001002F097FA78E0AC
:10096000A2F14105192D01D842F020020A54401C81
:100970001A5C002AF4D109F8004042463CA14846DE
:1009800002F002F90126384DB71E40B13B460B225A
:1009900039A13C4801F0D0FB85F8EC6327E04246E2
:1009A00039A1484602F0F0F848B13B460B2232A18B
:1009B000344801F0C1FB022085F8EC033BE04246DD
:1009C00033A1484602F0E0F848B195F8EB033B4606
:1009D000012809D00D2230A12A4801F0ADFB95F87D
:1009E000EC03012803D022E00B222FA1F4E74246BA
:1009F00030A1484602F0C8F858B185F8EB633B4691
:100A000003222DA11F4801F097FB3B460B2226A194
:100A10000AE0424629A1484602F0B6F838B185F806
:100A2000EB433B460D221CA1164801F085FB95F8CF
:100A3000EC0302280DD142461EA1484602F0A4F85C
:100A400038B185F8EB433B4603221BA10D4801F06A
:100A500073FB484602F0DEF8BDE8FF87582564596D
:100A60002564572564000000C401002025730000A0
:100A70006175746F00000000537572653F2028593E
:100A80002F4E2900B40500206D616E75616C000069
:100A90006D6F64653F0000004D4F44453A206D6125
:100AA0006E75616C000000004D4F44453A20617541
:100AB000746F0000796573004F4B00006E6F00008B
:100AC00072B6FEE790F82020012A07D0022A05D04E
:100AD000416A41F480214162012070470068426907
:100AE0000A43426100207047F0B590F82050046836
:100AF000A468012D05D0022D03D0416A41F4802164
:100B00005DE014F0406F01D1E50055D5C4F30164F8
:100B1000022C03D9416A41F4000150E00125A540AF
:100B20001D608D684FF4C0739DB1CE6835434E682B
:100B300045EAC605066803EB0417F5514FF4C27584
:100B4000076805EB04150E697E51097D012905D062
:100B500009E00E88CD6845EA4655EBE701684E5935
:100B600046F480764E511179D579567941EA05617E
:100B700095792D0445EA062529434FF4C676056884
:100B800006EB0416A9511178D57841EA05619578EC
:100B900052782D0445EA022211434FF4C4750268CD
:100BA00005EB04155151006803EB0411425842F063
:100BB000010242500020F0BD416A41F4001141623F
:100BC0000120F0BD10B590F82020012A07D0022A9C
:100BD00005D0416A41F480214162012010BD3B48AB
:100BE000D0F8002242F00102C0F80022D0F8002222
:100BF00022F47C52C0F80022D0F800224B6A42EA6C
:100C00000322C0F800220A7D02F01F0301229A404D
:100C1000D0F81C329343C0F81C32CB69B3B9D0F87A
:100C20000C329343C0F80C328C894B6864F31F4339
:100C30004C6900EBC404C4F840320C890B6864F3BF
:100C40001F434C6900EBC404C4F84432CB69012B48
:100C500016D1D0F80C321343C0F80C320C884B6814
:100C600064F31F434C6900EBC404C4F840320C89A0
:100C7000CB6864F31F434C6900EBC404C4F84432EE
:100C80008B69002BD0F804320ED01343C0F8043225
:100C90000B69002BD0F8143208D01343C0F814327B
:100CA000096A012904D008E09343EFE79343F5E78D
:100CB000D0F81C121143C0F81C12D0F8001221F019
:100CC0000101C0F80012002010BD000000640040C7
:100CD000704730B590F82040012C05D0022C03D08D
:100CE000416A41F480215DE00468002955D02469FF
:100CF000A40754D04FF4D874056804EB01142D599F
:100D000015F00405956005682D594ED0ED08556025
:100D100005682C5904F00204D4604FF4DA740568B5
:100D200004EB01142D5905F00F05156105682D59C7
:100D3000C5F30725956105682C59240C54614FF4BF
:100D4000DC72046802EB0112A4581C700468A458F9
:100D5000240A5C700468A458240C9C700468A2588F
:100D6000120EDA704FF4DE72046802EB0112A4581E
:100D70001C710468A458240A5C710468A458240CEB
:100D80009C710468A258120EDA71006881B1016981
:100D900041F020010161002030BDE468A8E7416A0C
:100DA00041F400114162012030BD6D0D1560AFE7C7
:100DB000C16841F02001C160EDE72DE9F05F054613
:100DC000006800244669D0F804908768D0F80CB019
:100DD000D0F810A0D0F81880F10748D0F90714D047
:100DE00001218160B80703D5284600F050FA0CE0D5
:100DF000780702D54FF4006407E0380702D54FF4B6
:100E0000805402E0284600F041FAF80516D529681A
:100E10004FF480708860B80503D5284600F039FA91
:100E20000CE0780502D544F4005407E0380502D5FB
:100E300044F4804402E0284600F02AFAF80316D56C
:100E400029684FF480308860B80303D5284600F045
:100E500022FA0CE0780302D544F4004407E038039A
:100E600002D544F4803402E0284600F013FA30073B
:100E700007D55FEACB6004D52968102044F40074DC
:100E8000C86070074FF0080707D55FEA0B7004D5FC
:100E90002868C760284600F099F9B00706D5286889
:100EA000C068800702D0284600F092F9700607D586
:100EB0005FEACA6004D52968102044F480640861A0
:100EC000B00607D55FEA0A7004D52868076128468E
:100ED00000F0ACF9F00606D528680069800702D05A
:100EE000284600F0A4F9B00308D55FEAC96005D52B
:100EF000296810204860284600F09AF9F00307D5C9
:100F00005FEA097004D528684760284600F0C4F9F4
:100F1000300446D55FEA497040D5F00504D55FEA54
:100F2000C87001D044F00104B00504D55FEA8870B0
:100F300001D544F00204700504D55FEA487001D57C
:100F400044F00404300529D518F0700F26D008F0BD
:100F50007000402815D006DC102809D020280AD0BF
:100F6000302816D10AE050280ED0602811D10EE0AA
:100F700044F008040DE044F010040AE044F02004BA
:100F800007E044F0400404E044F0800401E044F44D
:100F900080742868816921F07001816129680420CA
:100FA0004860002C05D0686A204368622846FFF735
:100FB0008FFEBDE8F09F70B5040003D094F82000C8
:100FC00010B104E0012070BD204600F081F82068D7
:100FD000016841F00101016000F0ECFA05460526C8
:100FE00004E000F0E7FA401B0A2811D820684068A6
:100FF000C007F6D02068016821F00201016000F00E
:10100000D9FA05460BE000F0D5FA401B0A2806D9AC
:10101000606A40F40030606284F82060D2E72068A3
:1010200040688007EFD4207E0128206801683DD009
:1010300021F080010160607E01282068016838D0BD
:1010400021F040010160A07E01282068016833D0B2
:1010500021F020010160E07E0128206801682ED087
:1010600041F010010160207F01282068016829D02B
:1010700021F008010160607F01282068016824D008
:1010800021F004010160D4E902010843D4E904120B
:10109000114308436168491E08432168C861002064
:1010A0006062012084F82000002070BD41F08001C2
:1010B000C0E741F04001C5E741F02001CAE721F057
:1010C0001001CFE741F00801D4E741F00401D9E76E
:1010D000F0B587B0044614216846FFF7BDF8364BDB
:1010E0003648DFF8D0E01968D4F800C0334A032549
:1010F0000226092710300024491CF44522D119602A
:10110000012907D1016841F000710160006800F019
:1011100000700590106840F0080010601068CDE97C
:10112000005600F00800CDE9047069462448CDE976
:10113000024500F01FF900221146142000F0A8FA21
:10114000142033E0DFF87CE0F44531D1D0F800C062
:101150004CF0806CC0F800C0D0F800C001290CF041
:10116000806CCDF814C0196007D1016841F000719E
:101170000160006800F000700590106840F0020007
:101180001060106802AB00F0020005904FF4405070
:10119000CDE9000683E8B00069460B4800F0EAF8A4
:1011A00000221146402000F073FA402000F062FA5D
:1011B00007B0F0BD0064004020000020303802403D
:1011C000000C02400068004000040240704700002C
:1011D00000B58BB001AB03AA0021FFF77AFD03989D
:1011E000A0F2012006281AD80E49C0B200EB8002F6
:1011F00008700D4901EB420031F812300381BDF84F
:1012000004305BBA21F81230BDF8061049BA4180AB
:10121000BDF8081049BA81809DF80A1081710BB0A1
:1012200000BD000024000020C40600207047704765
:101230007047000070B5044690F82000012804D0E3
:10124000606A40F40020606218E0022084F8200008
:101250002068016821F00101016000F0ABF905464A
:101260000EE000BF00F0A6F9401B0A2808D9606A0A
:1012700040F400306062052084F82000012070BD39
:1012800020684068C007EDD1606270BD704770474C
:10129000704770477047704770472DE9F04104462A
:1012A000876D00F087F9064694F83500002502287E
:1012B00006D08020606584F834500120BDE8F081BC
:1012C0002068016821F0160101602068416921F061
:1012D00080014161206C08B9A06C20B120680168D0
:1012E00021F0080101602068016821F0010101601E
:1012F0000CE000F05FF9801B052807D9202060650D
:10130000032084F8350084F83450D7E7206800685B
:10131000C007EED194F85C103F208840B8600120EF
:1013200084F8350084F834500020C7E790F8351071
:10133000022903D08021416501207047052180F8F2
:1013400035100068016821F001010160002070473C
:1013500070B5044600F02EF90546601C02D0044822
:101360000078044400F026F9401BA042FAD370BD77
:10137000380000202DE9F84FDFF8F8A10022012401
:1013800003254FF00F090AF1040BAAF1040E00BF68
:101390000B6804FA02F63340B34270D10F7907F0BC
:1013A0000307012F01D0022F16D187684FEA4208A8
:1013B00005FA08FC27EA0C07D1F80CC00CFA08FC67
:1013C0004CEA070CC0F808C04768B7430E79C6F36B
:1013D000001696403E4346600E79F643B6070AD0A3
:1013E000C7684FEA420C05FA0CF6B7438E6806FA56
:1013F0000CF63E43C6600E7906F00306022E10D1AD
:10140000D60800EB8608D8F8206057074FEAD76C5B
:1014100009FA0CF7BE430F6907FA0CF73743C8F80F
:10142000207006684FEA420C05FA0CF7BE430F79AC
:1014300007F0030707FA0CF7374307604E6816F406
:10144000403F1CD04C4E376847F4804737603668C1
:1014500022F0030706F480460096484E07EB060C80
:10146000DCF8086897073F0F09FA07F826EA08062C
:10147000DFF80C81404503D14FF0000841E072E0F5
:10148000DFF80081404502D14FF0010839E0DFF874
:10149000F880404502D14FF0020832E0DFF8EC80DE
:1014A000404502D14FF003082BE0DFF8E4804045CF
:1014B00002D14FF0040824E0DFF8D880404502D183
:1014C0004FF005081DE0DFF8D080404502D14FF015
:1014D000060816E0DFF8C480404502D14FF0070847
:1014E0000FE0DFF8BC80404502D14FF0080808E06B
:1014F000DFF8B080404502D14FF0090801E04FF01D
:101500000A0808FA07F848EA0608CCF80888DAF862
:1015100000605746D1F804C09E435FEACC2C00D54A
:101520001E433E60DBF800605F46D1F804C09E4376
:101530005FEA8C2C00D51E433E60DEF800607746E3
:10154000D1F804C09E435FEA8C3C00D51E433E6048
:10155000084F083F3E68D1F804C09E435FEACC3C88
:1015600000D51E433E60521C102AFFF411AFBDE8A7
:10157000F88F0000083C0140443802400030014030
:10158000000002400004024000080240000C02403B
:10159000001002400014024000180240001C0240EB
:1015A00000200240002402400AB181617047090412
:1015B000FBE7000001488068704700003800002009
:1015C0000248816802781144816070473800002029
:1015D0000B4810B5016841F400710160016841F4E5
:1015E00080610160016841F480710160032000F0B6
:1015F0006FF80F2000F006F800F024F8002010BD6E
:10160000003C024070B50D4D04464FF47A712878C5
:10161000B1FBF0F00A490968B1FBF0F000F00CFBF7
:1016200048B9102C07D200222146501E00F030F895
:1016300000206C6070BD012070BD000038000020EB
:10164000440000200A4808B5016841F48041016067
:10165000006800F4804000900548001F016841F0D8
:1016600080510160006800F08050009008BD0000CB
:1016700044380240002809DB00F01F02012191409C
:101680004009800000F1E020C0F800117047000020
:10169000F0B40E4B1B680C46C3F30223C3F10705DD
:1016A000042D00D90425191D072901D2002300E0CB
:1016B000DB1E012606FA05F1491E214099409E4095
:1016C000761E16403143F0BC01F062B90CED00E02B
:1016D000064900F0070208684FF6FF03184040EA89
:1016E0000220034A10430860704700000CED00E040
:1016F0000000FA052DE9F0470E46050065D0DFF839
:101700001481D8F80000F7B200F00F00B04207D201
:1017100088F80070D8F8000000F00F00B04254D1F3
:1017200028683D4C810712D5400703D5206840F456
:10173000E05020602878000703D5206840F460401E
:1017400020602068A96820F0F00008432060287815
:10175000C0072DD0304968680839012812D0022806
:1017600013D0032811D00968890700292DDA2168D0
:1017700021F0030101432160FFF71CFF814641F284
:10178000883A0EE009688903EFE709688901ECE708
:10179000FFF710FFA0EB0901514502D90320BDE876
:1017A000F0872068696800F00C00B0EB810FEFD182
:1017B000D8F80010404601F00F01B14207D9077078
:1017C000006800F00F00B04201D00120E7E7287860
:1017D000400705D52068E96820F4E0500843206000
:1017E0002878000706D52068296920F4604040EA7F
:1017F000C100206000F038F82168084AC1F30311E5
:10180000515CC8400649086006480068FFF7FAFEC8
:101810000020C4E7003C024008380240002F0008C6
:10182000440000203C000020044805490068096885
:10183000044AC1F38221515CC84070474400002033
:1018400008380240102F000804480549006809685C
:10185000044AC1F34231515CC84070474400002043
:1018600008380240102F0008154810B5006810F025
:101870000C02144813D01449042A0FD0082A0ED1A0
:101880000F4C241F2268236802F03F025B0207D539
:101890002068C0F38810A0FB010106E0084610BDD7
:1018A0002168C1F38811A1FB00010023FEF79CFC15
:1018B0002168C1F30141491C4900B0FBF1F010BDA2
:1018C000083802400024F400001BB7002DE9F84F4F
:1018D00004006ED02078DFF84C93C007A9F104050E
:1018E0004AD009F104000168C1F38101012908D03F
:1018F0000068C0F3810002280AD1D9F80000400234
:1019000006D52868800337D560680028E1D033E029
:101910006068B0F5803F10D0B0F5A02F286810D0D7
:1019200020F480302860286820F4802028606068D7
:10193000A8B1FFF73FFE06460DE0286840F480306E
:10194000F4E740F480202860F7E700BFFFF732FE9D
:10195000801B642873D828688003F7D50CE0FFF754
:1019600029FE064605E000BFFFF724FE801B642821
:10197000F0D828688003F7D42078DFF8AC8280079D
:101980004FF0000A3ED5A748001D016811F00C0F6A
:1019900008D00068C0F3810002280BD1D9F80000FC
:1019A000400207D42868800716D5E068012800D1D6
:1019B00012E033E1E068B8B10120C8F80000FFF799
:1019C000F9FD064605E000BFFFF7F4FD801B022885
:1019D000C0D828688007F7D52868216920F0F8006A
:1019E00040EAC10028600DE0C8F800A0FFF7E2FD62
:1019F000064604E0FFF7DEFD801B02281FD828689A
:101A00008007F7D42078000722D5864F8748616980
:101A1000703771B101210160FFF7CCFD064604E08B
:101A2000FFF7C8FD801B022809D838688007F7D562
:101A30000EE0C0F800A0FFF7BDFD064605E082E01D
:101A4000FFF7B8FD801B02287DD838688007F7D4DF
:101A50002078400768D5DFF8CCB100270BF13C0BAC
:101A6000DBF80000C0000BD4DBF8001041F080511F
:101A7000CBF80010DBF80000012700F08050009048
:101A80006B4E3068C00510D4306840F48070306010
:101A9000FFF790FD009005E0FFF78CFD0099401ADC
:101AA000022850D83068C005F6D55E4EA0686C3666
:101AB00001280FD00528306810D020F001003060D8
:101AC000306820F004003060A068B8B1FFF772FD04
:101AD00000900FE0306840F00100F4E740F00400AF
:101AE0003060F7E7FFF766FD0099411A41F2883050
:101AF000814266D830688007F4D50EE0FFF75AFDC2
:101B0000009007E0FFF756FD0099411A41F2883036
:101B1000814256D830688007F4D42FB1DBF800102A
:101B200021F08051CBF80010A069C8B33D49091DD0
:101B30000968C1F3810102294AD00228504607D022
:101B4000C8F8600000E03CE0FFF734FD04463BE0ED
:101B50004746C8F86000FFF72DFD064605E000BFC8
:101B6000FFF728FD801B02282BD828688001F7D4B6
:101B7000D4E907010843A16A2E4A490802EB014152
:101B8000626A41EA8211084394F82C1040EA01612C
:101B9000C9F8001001203866FFF70CFD044606E086
:101BA0003EE000BFFFF706FD001B022809D82868A9
:101BB0008001F7D534E000BFFFF7FCFC001B0228D2
:101BC00002D90320BDE8F88F28688001F4D427E00B
:101BD0000128F7D0D9F80000E26900F480019142B1
:101BE0001CD1226A00F03F01914217D147F6C07123
:101BF000626A0140B1EB821F10D1A26A4FF0FF333D
:101C000000F4403103EB5202B1EB024F06D194F8DD
:101C10002C1000F07060B0EB016F01D00120D1E713
:101C20000020CFE70438024000004742800E4742C0
:101C3000007000400000FFFF10B5401EB0F1807F33
:101C400001D3012010BD4FF0E02460610F21601727
:101C500000F09EFE0020A06107202061002010BD42
:101C600018B5034690F83E00202822D181B17AB100
:101C700093F83C0001281CD0012083F83C00186335
:101C8000184600F00DFE002803D1196B012901D080
:101C9000012018BD19680A684968009119680C315B
:101CA00051E8002F42F0100241E80024002CF5D149
:101CB00018BD022018BD000070B50F4A904219D11E
:101CC0000E4C4FF47A7594F8EB0301280BD1A4F86D
:101CD000E8130846FEF71CFE29462046FEF7BCFA2C
:101CE0000020A4F8E8032A46BDE8704003490248F2
:101CF000FFF7B6BF70BD000080060020C4010020C1
:101D000070470000F8B5016804460868CA684B6966
:101D100010F00F0F4FF0000559D003F0010602F448
:101D20009077374365D0C10705D0D10503D5216C25
:101D300041F001012164410705D5D90703D0216C89
:101D400041F002012164810705D5D90703D0216C38
:101D500041F004012164010707D502F0200131435D
:101D600003D0216C41F008012164216C00293AD094
:101D7000800604D5900602D5204600F0AAFC206813
:101D80004069216CC0F38010090700D460B320467D
:101D900000F078FC20684069400621D520681430A6
:101DA00050E8001F21F0400140E80012002AF5D160
:101DB000A06BA8B16C490165A06BFFF7B7FA0028CA
:101DC00011D0A06B016D01B0BDE8F040084783065B
:101DD0000FD593060DD52046BDE8F84000F079BC3C
:101DE0002046FFF78DFFF8BD2046FFF789FF2564E9
:101DF000F8BD266B2023012E79D1C60677D5D606ED
:101E000075D50868486800904869400640D5A16BC0
:101E1000086840680004000CEAD0A28D8242E7D92D
:101E2000E085C869B0F5807F2DD020680C3050E87F
:101E3000001F21F4807140E80012002AF5D12068CB
:101E4000143050E8001F21F0010140E80012002A80
:101E5000F5D12068143050E8001F21F0400140E81F
:101E60000012002AF5D184F83E30256320680C303A
:101E700050E8001F21F0100140E80012002AF5D1BF
:101E8000A06BFFF70AFAA08DE18D401A81B229E01C
:101E9000A08DE18D401A81B2E08D0028A8D00029E4
:101EA000A6D020680C3050E8002F22F4907240E851
:101EB0000026002EF5D12068143050E8002F22F0C3
:101EC000010240E80026002EF5D184F83E3025635B
:101ED00020680C3050E8002F22F0100240E8002368
:101EE000002BF5D12046FFF7E7FEF8BDFFE705061A
:101EF0002BD5150629D594F83D002128F5D1A068E9
:101F0000B0F5805F01D12069B0B1206A411C216227
:101F1000216800784860E08C401E0004000CE084DA
:101F2000E3D12068C16821F08001C1602068C168E8
:101F300041F04001C160D8E7206A0088C0F3080082
:101F40004860206A801C2062E5E74006CDD5500637
:101F5000CBD5CA68204622F04002CA6084F83D30E2
:101F600000F043F9C1E700007526000870B50400D1
:101F700004D094F83D00002510B106E0012070BDAA
:101F800084F83C50204600F023F8242084F83D00DB
:101F90002068C16821F40051C160204600F0FAFBBE
:101FA0002068016921F4904101612068416921F0B4
:101FB0002A0141612068C16841F40051C160256473
:101FC000202084F83D0084F83E00002070BD000011
:101FD000F0B587B0044614216846FEF73DF94E4936
:101FE000DFF830C1266800234B4A1039022503244C
:101FF00008274A4866451AD1166846F0804616609A
:10200000126802F0804205920A6842F010020A60EB
:10201000096802AE01F010010591E101CDE900155A
:1020200086E898006946FFF7A5F907B0F0BDDFF82C
:10203000F0C0664521D1106840F40030106010688F
:1020400000F400300590086840F008000860086857
:10205000029300F0080005906020CDE900050720FC
:10206000CDE9034069462F48FFF784F90022114665
:102070002620FFF70DFB262021E0DFF8ACC06645E7
:1020800020D1166846F000461660126802F0004241
:1020900005920A6842F010020A600968CDE900451D
:1020A00001F01001CDE90471CDE902346946FFF772
:1020B00061F9002211465320FFF7EAFA5320FFF797
:1020C000D9FAB2E719488642AFD11348001D026819
:1020D00042F020020260006800F0200005900868CD
:1020E00040F040000860086802AA00F04000059037
:1020F0004FF48440CDE9000582E8980069460C4819
:10210000FFF738F9002211464720FFF7C1FA4720B0
:10211000D5E700000078004040380240001002403F
:1021200000440040000C0240007C004000140140CC
:1021300000180240704700002DE9F843044690F86B
:102140003D001F4616460D4620284CD1C5B1BEB1F4
:1021500094F83C00012846D0012084F83C004FF060
:102160000008C4F84080212084F83D00FFF722FADF
:10217000A6848146E684A068B0F5805F03D004E0C1
:102180000120BDE8F883206928B12E465FF00005E4
:1021900084F83C800EE00026FAE78021204600F01B
:1021A0009CFBA0B9AEB116F8010B21684860E08C29
:1021B000401EE084E08C4B464FF000020097002860
:1021C000EBD14FF04001204600F087FB30B10320F7
:1021D000D7E735F8020BC0F30800E6E7202084F8C3
:1021E0003D000020CDE70220CBE77047FEE700006E
:1021F0000F4810B50D4901600321416000214FF4E3
:1022000010228160C0E903124FF40012426101768E
:1022100041768176C17601774177FEF7CCFE0028C2
:1022200003D0BDE81040FEF74BBC10BD0064004079
:10223000740100200F4810B50D4901600321416071
:1022400000214FF410228160C0E903124FF4001204
:102250004261017641768176C17601774177FEF75A
:10226000AAFE002803D0BDE81040FEF729BC10BD2F
:10227000006800409C0100202DE9F04786B0142141
:102280006846FDF7E9FF2F480024016841F0080186
:102290000160016801F008010591016841F08001C9
:1022A0000160016801F080010591016841F01001B1
:1022B0000160016801F010010591016841F002011F
:1022C0000160016801F002010591016841F02001FF
:1022D00001600068DFF8708000F0200005900122A6
:1022E0003C214046FFF760F9DFF860904FF400664C
:1022F000002231464846FFF757F9DFF854A0F700AF
:10230000002239465046FFF74FF93C200090012546
:10231000CDE90154694640460394FFF72BF8009637
:10232000CDE90154694648460394FFF723F8009726
:10233000CDE90154694650460394FFF71BF806B0F7
:10234000BDE8F08730380240001C02400010024017
:10235000001402400C4810B50A4901604FF4E13105
:102360004160002181600C22C160C0E904128161DA
:10237000C161FFF7FBFD002803D0BDE81040FEF768
:102380009FBB10BD00780040B40500200C4810B57C
:102390000A4901604FF4E1314160002181600C2263
:1023A000C160C0E904128161C161FFF7DFFD00284F
:1023B00003D0BDE81040FEF783BB10BD007C004099
:1023C0003C0600200C4810B50A4901604FF4E13189
:1023D0004160002181600C22C160C0E9041281616A
:1023E000C161FFF7C3FD002803D0BDE81040FEF730
:1023F00067BB10BD00440040F80500200C4810B534
:102400000A4901604FF4E1314160002181600C22F2
:10241000C160C0E904128161C161FFF7A7FD002816
:1024200003D0BDE81040FEF74BBB10BD00140140C7
:1024300080060020FEE7FEE7A0B1D0ED101AC0ED47
:10244000111A90ED0F1A80ED101AC0ED060A80EDFA
:10245000070A30EEC00A80ED0F0A017829B1012980
:102460003BD078E09FED3D0A7047D0ED010A60EE69
:10247000801AC0ED091AD0ED0A0A90ED022A42EE48
:10248000000A30EE410AC0ED0A0A90ED0D2A80EDF7
:102490000E2A90ED0C2A80ED0D2A80ED0C0A90EDAD
:1024A000031A21EE001A80ED0B1A90ED050AF4EEE6
:1024B000C00AF1EE10FA09DCB1EE400AF4EEC00AEF
:1024C000F1EE10FA02D390ED0A0A01E080ED0A0A5B
:1024D00031EE800A30EE010A2BE070EE410A90EDF9
:1024E000012A20EE822A80ED092AD0ED020A60EE50
:1024F000800AC0ED0A0AD0ED0D2A72EE200AC0ED66
:102500000E2AD0ED0C2AC0ED0D2AF0EE002A01EEC5
:10251000620A30EE210A80ED0C0A90ED031A21EEDA
:10252000000A80ED0B0A30EE800AD0ED080A30EE8A
:10253000200A80ED080AD0ED040AB4EEE00AF1EEBC
:1025400010FA06DCF1EE600AB4EEE00AF1EE10FAE1
:1025500001D2C0ED080A90ED080A704700000000A3
:10256000002828D0002A26D0017092ED001A80EDB4
:10257000011A92ED011A80ED021A92ED021A80ED15
:10258000031A80ED040A9FED0C0AC0ED050A80EDE8
:102590000E0A80ED0D0A80ED0C0A80ED080A80ED30
:1025A0000B0A80ED0A0A80ED090A80ED110A80ED20
:1025B000100A80ED0F0A7047000000007047704756
:1025C000FEF7FEBF30B593B030216846FDF744FEFC
:1025D00014210CA8FDF740FE1D480025016841F0BC
:1025E00080510160006800F0805011901948016826
:1025F00041F4404101600068022400F44040119021
:1026000001200090000401908001CDE906400620E1
:102610000890A820CDE9090404200B906846FFF734
:1026200055F908B172B6FEE70CA90F2081E8310018
:102630004FF4A0500F904FF48050109005210CA83B
:10264000FFF758F8002801D072B6FEE713B030BD8E
:1026500040380240007000400248016841F47001B7
:102660000160704788ED00E00148FFF74BBB0000B8
:102670003C06002010B5806B0021C185C184FFF7A6
:102680003FFB10BD01680C3151E8002F22F490721D
:1026900041E80023002BF5D10168143151E8002FE7
:1026A00022F0010241E80023002BF5D1016B012942
:1026B00009D101680C3151E8002F22F0100241E8E5
:1026C0000023002BF5D1202180F83E10002101636A
:1026D000704708B590F83E10222901D0022008BDAD
:1026E00082684FF480539A4201D1016921B1816A15
:1026F0009A421BD04AB10AE00268816A5268C2F36A
:1027000008020A80816A891C08E0026972B10268C5
:10271000526802F07F020A70816A491C8162C18D91
:10272000491E0904090CC18503D019E002685268EA
:10273000F1E70168CA6822F02002CA600168CA682D
:1027400022F48072CA6001684A6922F001024A617B
:10275000202180F83E10016B012903D0FFF7EAFC2D
:10276000002008BD0021016301680C3151E8002FF1
:1027700022F0100241E80023002BF5D101680A681D
:10278000D20602D50A6849680091818DFFF794FA54
:10279000E6E7000070B5044600680169E26821F4CC
:1027A0004051114301612169A068E26908436169F0
:1027B000114308432168CA6849F20C639A430243F3
:1027C000CA6020684169A26921F4407111434161E6
:1027D00031492068884202D03049884202D1FFF74F
:1027E00033F801E0FFF720F8E2690023192164259E
:1027F0003226B2F5004F626828D0A0FB0101930F8A
:102800009200FDF7F1FC0146B0FBF5F06FF0180205
:10281000504301EB800006EB0010B0FBF5F000F038
:10282000F002B1FBF5F002EB0012B1FBF5F06FF036
:102830001803584301EB800006EB0010B0FBF5F0E5
:1028400000F00F0021681044886070BDA0FB0101FA
:1028500092185B41FDF7C8FC0146B0FBF5F00201A0
:10286000B1FBF5F06FF01803584301EB800006EB65
:10287000C000B0FBF5F000F0F80002EB4002B1FB45
:10288000F5F0584301EB800006EBC000B0FBF5F01B
:1028900000F00700D6E700000010014000140140DE
:1028A00081628285C28500210164222280F83E2057
:1028B00080F83C10016921B10168CA6842F4807255
:1028C000CA6001684A6942F001024A610068C16851
:1028D00041F02001C160002070472DE9F041984689
:1028E00017460E460446069D27E0681C25D02DB1EC
:1028F000FEF760FEA0EB0800A8421ED920680C304D
:1029000050E8001F21F4D07140E80012002AF5D1F0
:102910002068143050E8001F21F0010140E8001247
:10292000002AF5D1202084F83D0084F83E000020E4
:1029300084F83C000320BDE8F0812068006836EA96
:10294000000004D00020B842CFD00020F3E70120DF
:10295000F9E700000148FFF7D5B90000F8050020AD
:102960000148FFF7CFB9000080060020FEE7000015
:102970000FB4054B10B503A9044A029800F028F8DB
:1029800010BC5DF814FB0000FD2B0008480000207F
:102990000907090E002804DB00F1E02080F800148C
:1029A000704700F00F0000F1E02080F8141D704720
:1029B00002E008C8121F08C1002AFAD17047704708
:1029C000002001E001C1121F002AFBD17047000066
:1029D0002DE9FF4F8BB09A460F460546002606E0CC
:1029E00025280BD052460D9990476D1C761C2878EF
:1029F0000028F5D10FB03046BDE8F08F0024A04686
:102A00000122604900E0044315F8013F203B02FA2F
:102A100003F00842F7D128782E2817D115F8010FB6
:102A200044F004042A280ED06FF02F022878A0F179
:102A3000300109290AD808EB880102EB410100EBBB
:102A400001086D1CF2E757F8048B6D1C2878692883
:102A50003ED006DC0028CDD063280BD0642804D1FA
:102A600036E0732810D075284BD052460D99904708
:102A7000761C85E017F8040B8DF8000000208DF817
:102A80000100E946012003E057F8049B4FF0FF30B6
:102A900061074FF0000401D40AE0641C44450DDADC
:102AA0008442FADB19F804100029F6D106E0641C10
:102AB0008442FCDB19F804100029F8D1264404E014
:102AC00019F8010B52460D999047641EF8D257E051
:102AD00001CF4FF00A0B002802DA40422D2102E01C
:102AE000210504D52B218DF82410012103E0E107F5
:102AF00005D02021F7E70DF1200908910CE0002115
:102B0000F9E701CF4FF00A0BF9E75946FDF772FCE0
:102B100001F1300209F8012D0028F6D1ADEB0900D2
:102B200000F1200B600701D44FF00108D84502DD09
:102B3000A8EB0B0000E000208046002406E009A876
:102B40005246005D0D999047641C761C089884429B
:102B5000F5DB04E0302052460D999047761CB8F121
:102B60000001A8F10108F5DC05E019F8010B524657
:102B70000D999047761CBBF10001ABF1010BF4DC21
:102B80006D1C34E70928010030B5002306E0C45C61
:102B9000CD5CAC4201D0002030BD5B1C9342F6DB23
:102BA000012030BD00B58BB000200121CDE9060128
:102BB000089100900190029003900590049069465E
:102BC0000C48FDF7FFFF0B48FEF734FB02210948D4
:102BD000FDF778FF0E200990059069460648FDF73D
:102BE000F1FF0548FEF726FB02210348FDF76AFFC7
:102BF0000BB000BD740100209C01002013B54FF6FE
:102C0000FF73012269460248FFF796FA00981CBD3F
:102C1000B405002010B5002821D0114B0022001F60
:102C2000196803E0814203D80A4649680029F9D1AE
:102C300052B11368841A9C4204D100681844106091
:102C4000104602E0506000E0186039B102680B1ACB
:102C5000934203D10B681A4402604968416010BD79
:102C60004C00002000F00300024900EB800001EB63
:102C700040007047C4060020604901202DED028B02
:102C800081F8EB03FEF7A4FCFFF79CFCFFF7F4FAD6
:102C9000FFF7AEFAFFF7CEFAFFF75CFBFFF792FB08
:102CA000FFF774FBFFF7AAFBFFF77CFF544C0122F0
:102CB00004212046FEF778FC012208212046FEF779
:102CC00073FC012210212046FEF76EFC0122202118
:102CD0002046FEF769FC00224FF480414948FEF788
:102CE00063FC0022E1144848FEF75EFC9FED478A32
:102CF000F0EE480ADFED468A464A0021B0EE680A47
:102D00004548FFF72DFC4448F0EE480AB0EE680A4B
:102D1000404A00214830FFF723FC3F48F0EE480AC4
:102D2000B0EE680A3B4A00219030FFF719FC3A48A0
:102D3000F0EE480AB0EE680A364A0021D830FFF7B4
:102D40000FFC0020FFF78EFF344C20610120FFF7BD
:102D500089FF60610220FFF785FFA0610320FFF774
:102D600081FFE061FDF782FD0A20FEF7F1FA41F2F2
:102D700088352069D4ED000AB0F90200F8EEE00AC7
:102D800000EE100A2448B8EEC00AFFF755FB606950
:102D9000D4ED010AB0F90200F8EEE00A00EE100AE4
:102DA0001D48B8EEC00A4830FFF746FBA069D4EDD5
:102DB000020AB0F90200F8EEE00A00EE100A164826
:102DC000B8EEC00A9030FFF737FBE069D4ED030A94
:102DD000B0F90200F8EEE00A00EE100A0E48B8EE74
:102DE000C00AD830FFF728FB2B461A462846114662
:102DF000FDF766FD0220FEF7ABFABAE7C40100203A
:102E0000001C024000140240001002400000FA447E
:102E100000007A46F42E0008540000200000002034
:102E2000F0B50B30154D20F007010024144A0FE0D7
:102E300003688B420BD38B4205D95E1A431847684F
:102E4000C3E9006700E04368136002C004E0021DAC
:102E500010680028ECD12046002802D1286808B16B
:102E60000020F0BD064A07481060074A121A22F0F7
:102E70000702C0E9002401202860D7E750000020A5
:102E80004C0000204407002040090020F0B50F1A34
:102E900008448418161AD51B154B3A4442F22831BF
:102EA000C3E9026248428C42C3E9004501DD196072
:102EB00003E014B1844200DA18608D4201DD5960EC
:102EC00003E015B1854200DA58608E4201DD996059
:102ED00003E016B1864200DA98608A4201DDD960CB
:102EE000F0BD002AFCD08242FADAD860F0BD0000C2
:102EF00000000020000050410AD7233C0000C040E1
:102F00000000000000000000010203040607080999
:102F10000000000001020304DDDDDDDDDCBBBBDD04
:102F2000DDDDDDDDDDDDDDDD988888888888888869
:102F30007777777777888888855555566666666689
:102F40006666666666688888833333322222222268
:102F5000222222222228888D782F000800000020BB
:102F600054000000B0290008CC2F000854000020B5
:102F7000EC0C0000C0290008000000000000000068
:102F80000000000000000000000000000000000041
:102F90000000000000000000000000000000000031
:102FA0000000000000000000000000000000000021
:102FB0000100000010000000000000000024F400E8
:0C2FC00000000000000000000000000005
:04000005080001AD41
:00000001FF
